{
    "contractName": "HGGToken",
    "abi": [
        {
            "inputs": [],
            "stateMutability": "nonpayable",
            "type": "constructor"
        },
        {
            "inputs": [
                {
                    "internalType": "address",
                    "name": "",
                    "type": "address"
                }
            ],
            "name": "balanceOf",
            "outputs": [
                {
                    "internalType": "uint256",
                    "name": "",
                    "type": "uint256"
                }
            ],
            "stateMutability": "view",
            "type": "function"
        },
        {
            "inputs": [],
            "name": "name",
            "outputs": [
                {
                    "internalType": "string",
                    "name": "",
                    "type": "string"
                }
            ],
            "stateMutability": "view",
            "type": "function"
        },
        {
            "inputs": [],
            "name": "symbol",
            "outputs": [
                {
                    "internalType": "string",
                    "name": "",
                    "type": "string"
                }
            ],
            "stateMutability": "view",
            "type": "function"
        },
        {
            "inputs": [],
            "name": "totalSupply",
            "outputs": [
                {
                    "internalType": "uint256",
                    "name": "",
                    "type": "uint256"
                }
            ],
            "stateMutability": "view",
            "type": "function"
        },
        {
            "inputs": [
                {
                    "internalType": "address",
                    "name": "to",
                    "type": "address"
                },
                {
                    "internalType": "uint256",
                    "name": "amount",
                    "type": "uint256"
                }
            ],
            "name": "transfer",
            "outputs": [
                {
                    "internalType": "bool",
                    "name": "",
                    "type": "bool"
                }
            ],
            "stateMutability": "nonpayable",
            "type": "function"
        }
    ],
    "bytecode": "60c060405260096080908152682423a3902a37b5b2b760b91b60a0526000906100289082610123565b5060408051808201909152600381526248474760e81b60208201526001906100509082610123565b5069d3c21bcecceda100000060025534801561006b57600080fd5b50600254336000908152600360205260409020556101e2565b634e487b7160e01b600052604160045260246000fd5b600181811c908216806100ae57607f821691505b6020821081036100ce57634e487b7160e01b600052602260045260246000fd5b50919050565b601f82111561011e57600081815260208120601f850160051c810160208610156100fb5750805b601f850160051c820191505b8181101561011a57828155600101610107565b5050505b505050565b81516001600160401b0381111561013c5761013c610084565b6101508161014a845461009a565b846100d4565b602080601f831160018114610185576000841561016d5750858301515b600019600386901b1c1916600185901b17855561011a565b600085815260208120601f198616915b828110156101b457888601518255948401946001909101908401610195565b50858210156101d25787850151600019600388901b60f8161c191681555b5050505050600190811b01905550565b61038d806101f16000396000f3fe608060405234801561001057600080fd5b50600436106100575760003560e01c806306fdde031461005c57806318160ddd1461007a57806370a082311461009157806395d89b41146100b1578063a9059cbb146100b9575b600080fd5b6100646100dc565b604051610071919061022b565b60405180910390f35b61008360025481565b604051908152602001610071565b61008361009f366004610295565b60036020526000908152604090205481565b61006461016a565b6100cc6100c73660046102b7565b610177565b6040519015158152602001610071565b600080546100e9906102e1565b80601f0160208091040260200160405190810160405280929190818152602001828054610115906102e1565b80156101625780601f1061013757610100808354040283529160200191610162565b820191906000526020600020905b81548152906001019060200180831161014557829003601f168201915b505050505081565b600180546100e9906102e1565b336000908152600360205260408120548211156101cf5760405162461bcd60e51b81526020600482015260126024820152714e6f7420656e6f7567682062616c616e636560701b604482015260640160405180910390fd5b33600090815260036020526040812080548492906101ee908490610331565b90915550506001600160a01b0383166000908152600360205260408120805484929061021b908490610344565b9091555060019150505b92915050565b600060208083528351808285015260005b818110156102585785810183015185820160400152820161023c565b506000604082860101526040601f19601f8301168501019250505092915050565b80356001600160a01b038116811461029057600080fd5b919050565b6000602082840312156102a757600080fd5b6102b082610279565b9392505050565b600080604083850312156102ca57600080fd5b6102d383610279565b946020939093013593505050565b600181811c908216806102f557607f821691505b60208210810361031557634e487b7160e01b600052602260045260246000fd5b50919050565b634e487b7160e01b600052601160045260246000fd5b818103818111156102255761022561031b565b808201808211156102255761022561031b56fea264697066735822122074dc352079c220b679df1a402f2122ba422e444b53387065a4a847fc722d638a64736f6c63430008130033",
    "sourcePath": "c:/Users/hidirgungor/Desktop/github/HGG Token/Solidity smart contract.sol",
    "compiler": {
        "name": "solc",
        "version": "0.8.19+commit.7dd6d404"
    },
    "functionHashes": {
        "balanceOf(address)": "70a08231",
        "name()": "06fdde03",
        "symbol()": "95d89b41",
        "totalSupply()": "18160ddd",
        "transfer(address,uint256)": "a9059cbb"
    },
    "gasEstimates": {
        "creation": {
            "codeDepositCost": "181800",
            "executionCost": "infinite",
            "totalCost": "infinite"
        },
        "external": {
            "balanceOf(address)": "2541",
            "name()": "infinite",
            "symbol()": "infinite",
            "totalSupply()": "2295",
            "transfer(address,uint256)": "infinite"
        }
    }
}